:020000000328D3
:10000600FF3083168500831285018316061483123A
:10001600061083168610831286100618AF28051858
:100026003E28C101C20108304202031D1C28CA3005
:10003600410203183E2886140230CB000430CC005F
:10004600BA30CD00CD0B2528CC0B2528CB0B252887
:10005600000086100230CB000430CC00BA30CD0050
:10006600CD0B3328CC0B3328CB0B33280000C10A29
:100076000319C20A162885186228C301C401233051
:100086004402031D482828304302031862288614B8
:100096004130CC00EE30CD00CD0B4F28CC0B4F2895
:1000A600000086104130CC00EE30CD00CD0B592833
:1000B600CC0B59280000C30A0319C40A42280519A3
:1000C6008628C501C60146304602031D6C285030FD
:1000D60045020318862886142130CC007630CD00E0
:1000E600CD0B7328CC0B7328000086102130CC0072
:1000F6007630CD00CD0B7D28CC0B7D280000C50ABF
:100106000319C60A6628051CAF28851CAF28051DDD
:10011600AF28C701C80123304802031D94282830A0
:1001260047020318AE2886144130CC00EE30CD00CD
:10013600CD0B9B28CC0B9B28000086104130CC00B1
:10014600EE30CD00CD0BA528CC0BA5280000C70AA4
:0C0156000319C80A8E28AF281028B02812
:02400E00FA3F77
:00000001FF
